:020000040800F2
:10000000F80B00209D200008F9990008059A0008C7
:100010000B9A0008119A0008179A000800000000C7
:100020000000000000000000000000001D9A000811
:10003000299A000800000000359A0008419A00083B
:10004000F5200008F5200008F5200008F52000083C
:10005000F5200008F5200008F5200008F52000082C
:10006000F5200008F5200008F5200008F52000081C
:10007000F5200008F5200008F5200008F52000080C
:10008000F5200008F5200008F5200008F5200008FC
:10009000F5200008F5200008F5200008F5200008EC
:1000A000F5200008F5200008F5200008F5200008DC
:1000B000F5200008F5200008F5200008F5200008CC
:1000C000F5200008F5200008F5200008F5200008BC
:1000D000F5200008F5200008519A0008FD9A000854
:1000E000F5200008F5200008F5200008F52000089C
:1000F000F5200008F5200008F5200008F52000088C
:10010000F5200008F5200008F5200008F52000087B
:10011000F5200008F5200008F5200008F52000086B
:10012000F5200008F5200008F5200008F52000085B
:100130005FF808F110B5054C237833B9044B13B1BF
:100140000448AFF300800123237010BD4C0400204D
:1001500000000000A4D100080C4B43B10C480D492D
:1001600010B5AFF300800C48036823B910BD0A48EE
:10017000036833B97047094B002BF7D0BDE8104036
:100180001847064B002BF5D0184700BF00000000B1
:10019000A4D1000850040020480400200000000002
:1001A00080B58AB000AF786039607B68002B01D1E0
:1001B00001237CE07B68022283F83D20786800F010
:1001C000ADF87B681A687B6804331946104608F05E
:1001D000EAF87B6818683B6819683B689B680322EB
:1001E00008F0E6FB7B681B687A681268926922F067
:1001F0000C029A617B681B687A68126891693A6898
:1002000052680A439A617B681B687A681268526870
:1002100042F080025A607B681B687A6812689268B4
:1002200022F070029A607B681B687A681268926894
:1002300042F040029A607B681A687B681B68996884
:100240001D4B0B4093607B681B687A68126892684C
:1002500042F004029A600023FB6100233B6270239A
:10026000FB6000237B620023BB6100237B613B6852
:10027000DB683B617B681B6807F10C02114618467E
:1002800008F0B4F97B681B687A681268526822F03B
:1002900070025A607B681B687A681268526842F084
:1002A00050025A607B68012283F83D2000231846E3
:1002B0002837BD4680BD00BFF8FFFEFF80B582B085
:1002C00000AF78607B68022283F83D207B681B6862
:1002D0001A6A41F211131340002B0FD17B681B687F
:1002E0001A6A40F244431340002B07D17B681B6815
:1002F0007A681268126822F001021A60786800F0C9
:1003000016F87B68002283F83D207B68002283F882
:100310003C20002318460837BD4680BD80B483B01A
:1003200000AF786000BF0C37BD4680BC704780B41A
:1003300083B000AF786000BF0C37BD4680BC70470B
:1003400080B582B000AF78607B681B680122002115
:10035000184608F007FD7B681B687A681268126807
:1003600042F001021A60002318460837BD4680BDDE
:1003700080B582B000AF78607B681B6800220021E6
:10038000184608F0EFFC7B681B681A6A41F21113EB
:100390001340002B0FD17B681B681A6A40F244435C
:1003A0001340002B07D17B681B687A6812681268BB
:1003B00022F001021A60002318460837BD4680BDAE
:1003C00080B582B000AF78607B681B687A6812687D
:1003D000D26842F00202DA607B681B6801220021C9
:1003E000184608F0BFFC7B681B687A6812681268C0
:1003F00042F001021A60002318460837BD4680BD4E
:1004000080B582B000AF78607B681B680022002155
:10041000184608F0A7FC7B681B687A681268D268E7
:1004200022F00202DA607B681B681A6A41F211133B
:100430001340002B0FD17B681B681A6A40F24443BB
:100440001340002B07D17B681B687A68126812681A
:1004500022F001021A60002318460837BD4680BD0D
:1004600080B584B000AFF860B9601346FB80FB68CC
:1004700093F83D30DBB2022B01D102233BE0FB6855
:1004800093F83D30DBB2012B0BD1BB68002B04D1BC
:10049000FB88002B01D001232DE0FB68022283F8AA
:1004A0003D20FB681B6801220021184608F05AFC19
:1004B000FB685B6A124ADA63FB685B6A114ADA64BA
:1004C000FB68586AFB681B6834331946BA68FB88B6
:1004D0000AF005F8FB681B68FA681268D26842F4F3
:1004E0000072DA60FB681B68FA681268126842F0F2
:1004F00001021A60002318461037BD4680BD00BFB8
:10050000EF8200085B82000880B582B000AF78609F
:100510007B681B6800220021184608F023FC7B68DA
:100520001B687A681268D26822F40072DA607B680D
:100530001B681A6A41F211131340002B0FD17B681C
:100540001B681A6A40F244431340002B07D17B68B2
:100550001B687A681268126822F001021A60002390
:1005600018460837BD4680BD80B582B000AF7860C0
:1005700039607B681B6804223968184601F045FB26
:100580007B681B687A681268526C42F400425A64B5
:100590007B681B687A681268126842F001021A6070
:1005A000002318460837BD4680BD80B582B000AF35
:1005B000786039607B681B6800223968184601F052
:1005C00024FB7B681B681A6A41F211131340002B4D
:1005D0000FD17B681B681A6A40F244431340002B1A
:1005E00007D17B681B687A681268526C22F400425B
:1005F0005A647B681B681A6A41F211131340002B7E
:100600000FD17B681B681A6A40F244431340002BE9
:1006100007D17B681B687A681268126822F00102B1
:100620001A60002318460837BD4680BD80B582B0E9
:1006300000AF786039603B680C2B41D801A252F8BA
:1006400023F000BF79060008C1060008C1060008B3
:10065000C10600088B060008C1060008C106000894
:10066000C10600089D060008C1060008C106000872
:10067000C1060008AF0600087B681B687A6812682C
:10068000D26842F00202DA601BE07B681B687A687D
:100690001268D26842F00402DA6012E07B681B68DC
:1006A0007A681268D26842F00802DA6009E07B6872
:1006B0001B687A681268D26842F01002DA6000E0C3
:1006C00000BF7B681B687A681268D26842F08002BB
:1006D000DA607B681B6804223968184601F095FAD5
:1006E0007B681B687A681268526C42F400425A6454
:1006F0007B681B687A681268126842F001021A600F
:10070000002318460837BD4680BD80B584B000AFD1
:10071000786039600023FB603B680C2B40D801A255
:1007200052F823F059070008A1070008A1070008A4
:10073000A10700086B070008A1070008A10700082F
:10074000A10700087D070008A1070008A10700080D
:10075000A10700088F0700087B681B687A68126889
:10076000D26822F00202DA601BE07B681B687A68BC
:100770001268D26822F00402DA6012E07B681B681B
:100780007A681268D26822F00802DA6009E07B68B1
:100790001B687A681268D26822F01002DA6000E002
:1007A00000BF7B681B6800223968184601F02DFAEB
:1007B0007B681B681B6AFB60FA6840F24443134085
:1007C000002B07D17B681B687A681268D26822F018
:1007D0008002DA607B681B681A6A41F211131340C9
:1007E000002B0FD17B681B681A6A40F24443134008
:1007F000002B07D17B681B687A681268526C22F460
:1008000000425A647B681B681A6A41F21113134054
:10081000002B0FD17B681B681A6A40F244431340D7
:10082000002B07D17B681B687A681268126822F077
:1008300001021A60002318461037BD4680BD80B5FE
:1008400084B000AFF860B9607A607B80FB6893F891
:100850003D30DBB2022B01D10223B8E0FB6893F8F4
:100860003D30DBB2012B0BD17B68002B04D17B88A0
:10087000002B01D00123AAE0FB68022283F83D206F
:10088000BB680C2B00F28A8001A252F823F000BF53
:10089000C50800089D0900089D0900089D09000879
:1008A000FB0800089D0900089D0900089D09000833
:1008B000310900089D0900089D0900089D090008EC
:1008C00067090008FB685B6A434ADA63FB685B6A96
:1008D000424ADA64FB68586A7968FB681B683433FB
:1008E0001A467B8809F0FBFDFB681B68FA681268F2
:1008F000D26842F40072DA6051E0FB689B6A364AC3
:10090000DA63FB689B6A354ADA64FB68986A79683F
:10091000FB681B6838331A467B8809F0E0FDFB68EA
:100920001B68FA681268D26842F48062DA6036E0C6
:10093000FB68DB6A284ADA63FB68DB6A274ADA6409
:10094000FB68D86A7968FB681B683C331A467B8869
:1009500009F0C5FDFB681B68FA681268D26842F4AA
:100960000062DA601BE0FB681B6B1B4ADA63FB6802
:100970001B6B1A4ADA64FB68186B7968FB681B68A2
:1009800040331A467B8809F0AAFDFB681B68FA68A9
:100990001268D26842F48052DA6000E000BFFB685F
:1009A0001B680422B968184601F02FF9FB681B6820
:1009B000FA681268526C42F400425A64FB681B6881
:1009C000FA681268126842F001021A6000231846A1
:1009D0001037BD4680BD00BF7F8200085B820008E3
:1009E00080B582B000AF786039603B680C2B41D88D
:1009F00001A252F823F000BF2D0A0008750A000872
:100A0000750A0008750A00083F0A0008750A000800
:100A1000750A0008750A0008510A0008750A0008DE
:100A2000750A0008750A0008630A00087B681B68DD
:100A30007A681268D26822F40072DA601BE07B6880
:100A40001B687A681268D26822F48062DA6012E069
:100A50007B681B687A681268D26822F40062DA60E8
:100A600009E07B681B687A681268D26822F48052B9
:100A7000DA6000E000BF7B681B6800223968184616
:100A800001F0C3F87B681B681A6A41F21113134026
:100A9000002B0FD17B681B681A6A40F24443134055
:100AA000002B07D17B681B687A681268526C22F4AD
:100AB00000425A647B681B681A6A41F211131340A2
:100AC000002B0FD17B681B681A6A40F24443134025
:100AD000002B07D17B681B687A681268126822F0C5
:100AE00001021A607B68012283F83D20002318462A
:100AF0000837BD4680BD80B582B000AF78603960F0
:100B00007B681B6804223968184601F07EF87B6810
:100B10001B687A681268526C42F400425A647B681F
:100B20001B687A681268126842F001021A6000239A
:100B300018460837BD4680BD80B582B000AF7860EA
:100B400039607B681B6800223968184601F05DF83F
:100B50007B681B681A6A41F211131340002B0FD1F6
:100B60007B681B681A6A40F244431340002B07D18C
:100B70007B681B687A681268526C22F400425A64DF
:100B80007B681B681A6A41F211131340002B0FD1C6
:100B90007B681B681A6A40F244431340002B07D15C
:100BA0007B681B687A681268126822F001021A607A
:100BB000002318460837BD4680BD80B582B000AF1F
:100BC000786039603B680C2B40D801A252F823F0C2
:100BD000050C00084D0C00084D0C00084D0C0008D9
:100BE000170C00084D0C00084D0C00084D0C0008B7
:100BF000290C00084D0C00084D0C00084D0C000895
:100C00003B0C00087B681B687A681268D26842F067
:100C10000202DA601BE07B681B687A681268D2689F
:100C200042F00402DA6012E07B681B687A6812689E
:100C3000D26842F00802DA6009E07B681B687A68D3
:100C40001268D26842F01002DA6000E000BF7B68F0
:100C50001B687A681268D26842F08002DA607B68AA
:100C60001B6804223968184600F0CFFF7B681B68B8
:100C70007A681268526C42F400425A647B681B68BE
:100C80007A681268126842F001021A60002318465E
:100C90000837BD4680BD80B584B000AF786039604C
:100CA0000023FB603B680C2B40D801A252F823F0D4
:100CB000E50C00082D0D00082D0D00082D0D000875
:100CC000F70C00082D0D00082D0D00082D0D000853
:100CD000090D00082D0D00082D0D00082D0D000830
:100CE0001B0D00087B681B687A681268D26822F0C6
:100CF0000202DA601BE07B681B687A681268D268BF
:100D000022F00402DA6012E07B681B687A681268DD
:100D1000D26822F00802DA6009E07B681B687A6812
:100D20001268D26822F01002DA6000E000BF7B682F
:100D30001B6800223968184600F067FF7B681B6853
:100D40001B6AFB60FA6840F244431340002B07D152
:100D50007B681B687A681268D26822F08002DA60C9
:100D60007B681B681A6A41F211131340002B0FD1E4
:100D70007B681B681A6A40F244431340002B07D17A
:100D80007B681B687A681268526C22F400425A64CD
:100D90007B681B681A6A41F211131340002B0FD1B4
:100DA0007B681B681A6A40F244431340002B07D14A
:100DB0007B681B687A681268126822F001021A6068
:100DC000002318461037BD4680BD80B584B000AF03
:100DD000F860B9607A607B80FB6893F83D30DBB2E5
:100DE000022B01D10223B8E0FB6893F83D30DBB25F
:100DF000012B0BD17B68002B04D17B88002B01D009
:100E00000123AAE0FB68022283F83D20BB680C2B7B
:100E100000F28A8001A252F823F000BF510E0008B0
:100E2000290F0008290F0008290F0008870E000865
:100E3000290F0008290F0008290F0008BD0E00081F
:100E4000290F0008290F0008290F0008F30E0008D9
:100E5000FB685B6A434ADA63FB685B6A424ADA64AE
:100E6000FB68586A7968FB681B6834331A467B88CC
:100E700009F035FBFB681B68FA681268D26842F417
:100E80000072DA6051E0FB689B6A364ADA63FB68FD
:100E90009B6A354ADA64FB68986A7968FB681B6864
:100EA00038331A467B8809F01AFBFB681B68FA681E
:100EB0001268D26842F48062DA6036E0FB68DB6A6E
:100EC000284ADA63FB68DB6A274ADA64FB68D86A77
:100ED0007968FB681B683C331A467B8809F0FFFA87
:100EE000FB681B68FA681268D26842F40062DA6034
:100EF0001BE0FB681B6B1B4ADA63FB681B6B1A4A1F
:100F0000DA64FB68186B7968FB681B6840331A4623
:100F10007B8809F0E4FAFB681B68FA681268D268FB
:100F200042F48052DA6000E000BFFB681B680422D4
:100F3000B968184600F069FEFB681B68FA68126819
:100F4000526C42F400425A64FB681B68FA681268EB
:100F5000126842F001021A60002318461037BD469D
:100F600080BD00BF7F8200085B82000880B582B030
:100F700000AF786039603B680C2B41D801A252F871
:100F800023F000BFB90F000801100008011000088D
:100F900001100008CB0F0008011000080110000824
:100FA00001100008DD0F0008011000080110000802
:100FB00001100008EF0F00087B681B687A68126850
:100FC000D26822F40072DA601BE07B681B687A68E2
:100FD0001268D26822F48062DA6012E07B681B68D3
:100FE0007A681268D26822F40062DA6009E07B68ED
:100FF0001B687A681268D26822F48052DA6000E0D6
:1010000000BF7B681B6800223968184600F0FDFDB0
:101010007B681B681A6A41F211131340002B0FD131
:101020007B681B681A6A40F244431340002B07D1C7
:101030007B681B687A681268526C22F400425A641A
:101040007B681B681A6A41F211131340002B0FD101
:101050007B681B681A6A40F244431340002B07D197
:101060007B681B687A681268126822F001021A60B5
:101070007B68012283F83D20002318460837BD46CF
:1010800080BD80B582B000AF786039607B681B6836
:1010900004223968184600F0B8FD7B681B687A683E
:1010A0001268526C42F400425A6400231846083712
:1010B000BD4680BD80B582B000AF786039607B6886
:1010C0001B6800223968184600F09FFD7B681B688A
:1010D0001A6A41F211131340002B0FD17B681B6871
:1010E0001A6A40F244431340002B07D17B681B6807
:1010F0007A681268526C22F400425A647B681B685A
:101100001A6A41F211131340002B0FD17B681B6840
:101110001A6A40F244431340002B07D17B681B68D6
:101120007A681268126822F001021A6000231846D9
:101130000837BD4680BD80B582B000AF78603960A9
:101140007B681B687A681268D26842F00202DA6033
:101150007B681B687A681268D26842F00402DA6021
:101160007B681B6804223968184600F04EFD7B68D6
:101170001B687A681268526C42F400425A64002379
:1011800018460837BD4680BD80B582B000AF786094
:1011900039607B681B687A681268D26822F00202A4
:1011A000DA607B681B687A681268D26822F00402F1
:1011B000DA607B681B6800223968184600F025FD5C
:1011C0007B681B681A6A41F211131340002B0FD180
:1011D0007B681B681A6A40F244431340002B07D116
:1011E0007B681B687A681268526C22F400425A6469
:1011F0007B681B681A6A41F211131340002B0FD150
:101200007B681B681A6A40F244431340002B07D1E5
:101210007B681B687A681268126822F001021A6003
:10122000002318460837BD4680BD80B485B000AFA6
:10123000F860B9607A60FB6893F83C30012B01D10B
:1012400002233CE0FB68012283F83C20BB68002BB2
:1012500008D0BB68102B05D0BB68202B02D0BB6820
:10126000302B0FD1FB681B68FA681268926822F075
:1012700070029A60FB681B68FA6812689168BA6825
:101280000A439A60FB681B68FA681268526842F069
:1012900001025A60FB681B68FA681268526822F003
:1012A00004025A60FB681B68FA68126851687A6821
:1012B0000A435A60FB68002283F83C20002318464A
:1012C0001437BD4680BC704780B485B000AFF8606D
:1012D000B9607A60FB6893F83C30012B01D102239E
:1012E00044E0FB68012283F83C20BB68002B08D057
:1012F000BB68102B05D0BB68202B02D0BB68302BFD
:101300000FD1FB681B68FA681268926822F07002BD
:101310009A60FB681B68FA6812689168BA680A43A9
:101320009A60FB681B68FA681268526842F0010212
:101330005A60FB681B68FA681268526822F004025F
:101340005A60FB681B68FA68126851687A680A4339
:101350005A60FB681B68FA681268D26842F0200283
:10136000DA60FB68002283F83C200023184614371B
:10137000BD4680BC704780B485B000AFF860B960EE
:101380007A60FB6893F83C30012B01D102234CE0DA
:10139000FB68012283F83C20BB68002B08D0BB68A7
:1013A000102B05D0BB68202B02D0BB68302B0FD18F
:1013B000FB681B68FA681268926822F070029A60F3
:1013C000FB681B68FA6812689168BA680A439A60F9
:1013D000FB681B68FA681268526842F001025A60A2
:1013E000FB681B68FA681268526822F004025A60AF
:1013F000FB681B68FA68126851687A680A435A6089
:10140000FB685B6B0B4ADA63FB685B6B0A4ADA6466
:10141000FB681B68FA681268D26842F40052DA600E
:10142000FB68002283F83C20002318461437BD4691
:1014300080BC7047DB1600085B82000880B485B072
:1014400000AF786039607B6893F83C30012B01D1A4
:1014500002233DE07B68012283F83C207B681B6807
:101460005B68FB607B681B689B68BB607B681B6874
:101470001A4A934204D07B681B68194A934208D1E8
:10148000FB6823F47003FB603B685B68FA681343F6
:10149000FB60FB6823F07003FB603B681B68FA6825
:1014A0001343FB60BB6823F08003BB603B689B6811
:1014B000BA681343BB607B681B68FA685A607B6834
:1014C0001B68BA689A607B68002283F83C2000237E
:1014D00018461437BD4680BC704700BF000001406D
:1014E0000004014080B485B000AF7860396000230B
:1014F000FB607B6893F83C30012B01D1022370E044
:101500007B68012283F83C207B68022283F83D201F
:10151000FB6823F0FF023B68DB681343FB60FB685A
:1015200023F440723B689B681343FB60FB6823F421
:1015300080623B685B681343FB60FB6823F40062D6
:101540003B681B681343FB60FB6823F480523B68D5
:101550001B691343FB60FB6823F400523B685B6923
:101560001343FB60FB6823F480423B689B6A134390
:10157000FB60FB6823F400423B689B6A1343FB60FB
:10158000FB6823F470223B689B691B041343FB60D8
:101590007B681B68154A934204D07B681B68144A19
:1015A000934215D1FB6823F470023B685B6A1B050C
:1015B0001343FB60FB6823F080723B68DB691343D5
:1015C000FB60FB6823F000723B681B6A1343FB60FF
:1015D0007B681B68FA685A647B68002283F83C20A9
:1015E000002318461437BD4680BC704700000140F8
:1015F0000004014080B483B000AF786039607B683C
:1016000093F83C30012B01D1022310E07B680122CA
:1016100083F83C207B681B683A681A657B68012266
:1016200083F83D207B68002283F83C200023184685
:101630000C37BD4680BC704780B483B000AF786083
:1016400039607B6893F83C30012B01D1022320E004
:101650007B68012283F83C207B68022283F83D20CE
:101660007B681B687A681268926D22F060429A6506
:101670007B681B687A681268916D3A680A439A65BC
:101680007B68012283F83D207B68002283F83C20A0
:10169000002318460C37BD4680BC704780B483B029
:1016A00000AF786000BF0C37BD4680BC704780B487
:1016B00083B000AF786000BF0C37BD4680BC704778
:1016C00080B483B000AF78607B6893F83D30DBB2C4
:1016D00018460C37BD4680BC704780B584B000AF5B
:1016E00078607B689B6BFB60FB68012283F83D2080
:1016F000F868FFF7D3FF00BF1037BD4680BD80B547
:1017000086B000AFF860B9607A6000237B61FB6847
:1017100093F83C30012B01D10223DDE0FB6801226C
:1017200083F83C20BB685B68002B02D0012B0DD0F6
:1017300017E0FB681B689B687B617B6923F47F4330
:101740007B61FB681B687A699A600AE0FB6818682D
:10175000BB68D968BB689A68BB681B6907F0E1FA87
:1017600000BF7B68142B00F2B18001A252F823F075
:10177000C5170008CD180008CD180008CD180008BE
:10178000F1170008CD180008CD180008CD18000882
:101790001D180008CD180008CD180008CD18000845
:1017A00049180008CD180008CD180008CD18000809
:1017B00075180008CD180008CD180008CD180008CD
:1017C000A1180008BB681B68002B08D0FB681B68C9
:1017D000FA681268926942F080029A6177E0FB68C9
:1017E0001B68FA681268926922F080029A616EE0C2
:1017F000BB681B68002B08D0FB681B68FA6812687E
:10180000926942F400429A6161E0FB681B68FA68E1
:101810001268926922F400429A6158E0BB681B6822
:10182000002B08D0FB681B68FA681268D26942F086
:101830008002DA614BE0FB681B68FA681268D269C3
:1018400022F08002DA6142E0BB681B68002B08D0FE
:10185000FB681B68FA681268D26942F40042DA61D8
:1018600035E0FB681B68FA681268D26922F400420E
:10187000DA612CE0BB681B68002B08D0FB681B6892
:10188000FA681268526D42F080025A651FE0FB68E8
:101890001B68FA681268526D22F080025A6516E0E1
:1018A000BB681B68002B08D0FB681B68FA681268CD
:1018B000526D42F400425A6509E0FB681B68FA6801
:1018C0001268526D22F400425A6500E000BFFB68C6
:1018D000002283F83C20002318461837BD4680BDFF
:1018E00080B584B000AFF860B9607A60FB6893F8A7
:1018F0003C30012B01D102236CE0FB68012283F80C
:101900003C20FB68022283F83D207B68142B57D8CB
:1019100001A252F823F000BF6D190008C119000898
:10192000C1190008C11900087B190008C119000875
:10193000C1190008C119000889190008C119000857
:10194000C1190008C119000897190008C119000839
:10195000C1190008C1190008A5190008C11900081B
:10196000C1190008C1190008B3190008FB681B68F9
:10197000B968184606F0C6FD23E0FB681B68B96825
:10198000184606F033FE1CE0FB681B68B968184671
:1019900006F0A6FE15E0FB681B68B968184606F05D
:1019A00017FF0EE0FB681B68B968184600F04FF996
:1019B00007E0FB681B68B968184600F09FF900E073
:1019C00000BFFB68012283F83D20FB68002283F8FA
:1019D0003C20002318461037BD4680BD80B584B03A
:1019E00000AFF860B9607A60FB6893F83C30012B77
:1019F00001D1022305E1FB68012283F83C20FB684A
:101A0000022283F83D207B68142B00F2F08001A2B3
:101A100052F823F0691A0008EF1B0008EF1B0008BA
:101A2000EF1B0008A91A0008EF1B0008EF1B0008B5
:101A3000EF1B0008EB1A0008EF1B0008EF1B000863
:101A4000EF1B00082B1B0008EF1B0008EF1B000812
:101A5000EF1B00086D1B0008EF1B0008EF1B0008C0
:101A6000EF1B0008AD1B0008FB681B68B96818462F
:101A700006F048FDFB681B68FA681268926942F03C
:101A800008029A61FB681B68FA681268926922F082
:101A900004029A61FB681B68FA6812689169BA6867
:101AA00012690A439A61A3E0FB681B68B96818468B
:101AB00006F09CFDFB681B68FA681268926942F4A4
:101AC00000629A61FB681B68FA681268926922F4E6
:101AD00080629A61FB681B68FA6812689169BA684B
:101AE000126912020A439A6182E0FB681B68B968B6
:101AF000184606F0F5FDFB681B68FA681268D269A3
:101B000042F00802DA61FB681B68FA681268D26961
:101B100022F00402DA61FB681B68FA681268D16976
:101B2000BA6812690A43DA6162E0FB681B68B96847
:101B3000184606F04DFEFB681B68FA681268D26909
:101B400042F40062DA61FB681B68FA681268D269C5
:101B500022F48062DA61FB681B68FA681268D16956
:101B6000BA68126912020A43DA6141E0FB681B6835
:101B7000B968184600F06BF8FB681B68FA681268D1
:101B8000526D42F008025A65FB681B68FA681268D9
:101B9000526D22F004025A65FB681B68FA681268ED
:101BA000516DBA6812690A435A6521E0FB681B68E7
:101BB000B968184600F0A2F8FB681B68FA6812685A
:101BC000526D42F400625A65FB681B68FA6812683D
:101BD000526D22F480625A65FB681B68FA681268CD
:101BE000516DBA68126912020A435A6500E000BFDB
:101BF000FB68012283F83D20FB68002283F83C202B
:101C0000002318461037BD4680BD80B487B000AFB2
:101C1000F860B9607A6000237B610422BB6802FA35
:101C200003F37B61FB681A6A7B69DB431A40FB683C
:101C30001A62FB681A6A7968BB6801FA03F31A43EF
:101C4000FB681A6200BF1C37BD4680BC704780B479
:101C500087B000AF7860396000233B610023FB60F0
:101C600000237B617B681B6A23F480327B681A62E5
:101C70007B681B6AFB607B685B687B617B685B6D74
:101C80003B613A691A4B13403B613B681B683A69F8
:101C900013433B61FB6823F40033FB603B689B68A4
:101CA0001B04FA681343FB607B68124A934203D01B
:101CB0007B68114A934209D17B6923F480337B61AD
:101CC0003B685B691B027A6913437B617B687A69B5
:101CD0005A607B683A695A653B685A687B689A65BE
:101CE0007B68FA681A6200BF1C37BD4680BC70472B
:101CF0008FFFFEFF000001400004014080B487B068
:101D000000AF7860396000233B610023FB60002353
:101D10007B617B681B6A23F480127B681A627B6894
:101D20001B6AFB607B685B687B617B685B6D3B610A
:101D30003A691B4B13403B613B681B681B023A69C5
:101D400013433B61FB6823F40013FB603B689B6813
:101D50001B05FA681343FB607B68124A934203D069
:101D60007B68114A934209D17B6923F480237B610C
:101D70003B685B699B027A6913437B617B687A6984
:101D80005A607B683A695A653B685A687B68DA65CD
:101D90007B68FA681A6200BF1C37BD4680BC70477A
:101DA000FF8FFFFE000001400004014080B500AF3E
:101DB000032008F071F8002000F03EF80AF0DCFA89
:101DC0000023184680BD80B500AF144B4FF0FF32A2
:101DD0001A62124B00221A62104B4FF0FF325A6205
:101DE0000E4B00225A620D4B4FF0FF321A610B4B23
:101DF00000221A61094B4FF0FF325A61074B002253
:101E00005A61064B4FF0FF329A61044B00229A61EF
:101E100000F00CF80023184680BD00BF00380240D7
:101E200080B400AF00BFBD4680BC704780B400AF37
:101E300000BFBD4680BC704780B582B000AF7860FF
:101E4000094B1B68094AA2FB03239B09184608F0AB
:101E50006CF8002279684FF0FF3008F028F8002372
:101E600018460837BD4680BD00000020D34D6210E3
:101E700080B400AF044B1B680133034A136000BFFA
:101E8000BD4680BC704700BF7404002080B400AF22
:101E9000024B1B681846BD4680BC70477404002086
:101EA00080B584B000AF78600023FB60FFF7EEFFE1
:101EB000F86000BFFFF7EAFF0246FB68D21A7B68B2
:101EC0009A42F7D300BF1037BD4680BD80B400AF43
:101ED000044A044B1B6823F00203136000BFBD4695
:101EE00080BC704710E000E080B400AF044A044BAF
:101EF0001B6843F00203136000BFBD4680BC7047FF
:101F000010E000E080B400AF024B1846BD4680BC34
:101F1000704700BF0003020180B400AF034B1B6891
:101F20001B0C1846BD4680BC704700BF002004E073
:101F300080B400AF034B1B68C3F30B031846BD46C8
:101F400080BC7047002004E080B400AF024B1B68E7
:101F50001846BD4680BC704720F4F01F80B400AF27
:101F6000024B1B681846BD4680BC704724F4F01F26
:101F700080B400AF024B1B681846BD4680BC70475A
:101F800028F4F01F80B400AF044A044B5B6843F0B0
:101F90000103536000BFBD4680BC7047002004E0D1
:101FA00080B400AF044A044B5B6823F00103536024
:101FB00000BFBD4680BC7047002004E080B400AF85
:101FC000044A044B5B6843F00203536000BFBD4604
:101FD00080BC7047002004E080B400AF044A044B8A
:101FE0005B6823F00203536000BFBD4680BC7047AE
:101FF000002004E080B400AF044A044B5B6843F067
:102000000403536000BFBD4680BC7047002004E05D
:1020100080B400AF044A044B5B6823F004035360B0
:1020200000BFBD4680BC7047002004E080B400AF14
:10203000044A044B1B6A43F00103136200BFBD4610
:1020400080BC70470038014080B400AF044A044BA4
:102050001B6A23F00103136200BFBD4680BC7047BA
:102060000038014080B400AF044A044B1B6843F4BD
:102070008063136000BFBD4680BC704700380140DC
:1020800080B400AF044A044B1B6823F44063136020
:1020900000BFBD4680BC70470038014080B582B0AB
:1020A00000AF114B7B60114B3B6007E03B681A1D92
:1020B0003A607A68111D796012681A603B680C4AB0
:1020C0009342F3D30D480E494FF000028842B8BF47
:1020D00040F8042BFADB08F025F808F015FF00BFE4
:1020E0000837BD4680BD00BFA4D100080000002015
:1020F0004C04002080B400AFFEE700004C04002038
:10210000F407002080B582B000AF78607B68002BB8
:1021100001D1012343E07B6893F86930DBB2002BE7
:1021200006D17B68002283F8682078680AF0BAFA42
:102130007B68242283F869207B681B687A681268B0
:10214000126822F001021A60786801F0D6F903469D
:10215000012B01D1012322E07B685B6A002B02D0B6
:10216000786801F037FC7B681B687A6812685268EF
:1021700022F490425A607B681B687A681268926801
:1021800022F02A029A607B681B687A6812681268DB
:1021900042F001021A60786801F0BDFC034618465F
:1021A0000837BD4680BD80B582B000AF78607B68DF
:1021B000002B01D101234BE07B6893F86930DBB23F
:1021C000002B06D17B68002283F8682078680AF02B
:1021D00069FA7B68242283F869207B681B687A6827
:1021E0001268126822F001021A60786801F085F91D
:1021F0000346012B01D101232AE07B685B6A002B97
:1022000002D0786801F0E6FB7B681B687A68126888
:10221000526822F490425A607B681B687A681268A0
:10222000926822F022029A607B681B687A681268C2
:10223000926842F008029A607B681B687A681268AC
:10224000126842F001021A60786801F064FC0346EB
:1022500018460837BD4680BD80B582B000AF7860B3
:1022600039607B68002B01D1012355E07B6893F82E
:102270006930DBB2002B06D17B68002283F868202E
:1022800078680AF00FFA7B68242283F869207B685B
:102290001B687A681268126822F001021A60786876
:1022A00001F02BF90346012B01D1012334E07B68B7
:1022B0005B6A002B02D0786801F08CFB7B681B689E
:1022C0007A681268526822F400625A607B681B6860
:1022D0007A681268926822F02A029A607B681B680A
:1022E0007A681268526842F480425A607B681B68C0
:1022F0007A681268526822F020013A680A435A60EC
:102300007B681B687A681268126842F001021A60E2
:10231000786801F000FC034618460837BD4680BDCA
:1023200080B584B000AFF8600B467A60FB72FB6842
:10233000002B01D101235CE0FB6893F86930DBB22C
:10234000002B06D1FB68002283F86820F8680AF0A9
:10235000A9F9FB68242283F86920FB681B68FA68E6
:102360001268126822F001021A60F86801F0C5F8DC
:102370000346012B01D101233BE0FB685B6A002B84
:1023800002D0F86801F026FBFB681B68FA68126847
:10239000526822F490425A60FB681B68FA6812681F
:1023A000926822F02A029A607B68B3F5006F0AD126
:1023B000FB681B68FA681268526822F07F41FA7A5B
:1023C00012060A435A60FB681B68FA6812681268B2
:1023D00022F400617A680A431A60FB681B68FA6895
:1023E0001268126842F001021A60F86801F093FB6B
:1023F000034618461037BD4680BD80B586B000AF95
:10240000F860B9607A603B6000237B61FB68002B59
:1024100001D1012357E0FB6893F86930DBB2002B50
:1024200006D1FB68002283F86820F8680AF03AF9C0
:10243000FB68242283F86920FB681B68FA6812682D
:10244000126822F001021A60F86801F056F803469B
:10245000012B01D1012336E0FB685B6A002B02D01F
:10246000F86801F0B7FAFB681B68FA6812689268AE
:1024700042F480429A60FB681B68FA6812689268AE
:1024800022F40041BA680A439A607B685B057B616D
:102490003B681B047A6913437B61FB681A68FB681D
:1024A0001B6819680A4B0B4079690B431360FB6882
:1024B0001B68FA681268126842F001021A60F86834
:1024C00001F029FB034618461837BD4680BD00BF02
:1024D000FFFF00FC80B582B000AF78607B68002B06
:1024E00001D101232AE07B68242283F869207B68DC
:1024F0001B687A681268126822F001021A607B6811
:102500001B6800221A607B681B6800225A607B6887
:102510001B6800229A6078680AF02AF97B6800221A
:10252000DA667B68002283F869207B68002283F8E2
:102530006A207B68002283F8682000231846083749
:10254000BD4680BD80B483B000AF786000BF0C375B
:10255000BD4680BC704780B483B000AF786000BFD8
:102560000C37BD4680BC704780B588B002AFF860BC
:10257000B9603B601346FB8000237B61FB6893F8E6
:102580006930DBB2202B75D1BB68002B02D0FB88F1
:10259000002B01D101236EE0FB6893F86830012B1A
:1025A00001D1022367E0FB68012283F86820FB6801
:1025B0000022DA66FB68212283F86920FFF766FCB7
:1025C0007861FB68FA88A3F85020FB68FA88A3F8C2
:1025D000522032E0FB68B3F852309BB2013B9AB212
:1025E000FB68A3F852203B6800937B69002280219E
:1025F000F86800F0ADFC0346002B01D003233AE05D
:10260000FB689B68B3F5805F10D1FB681B69002BEA
:102610000CD1BB683B61FB681B683A691288C2F346
:1026200008029A62BB680233BB6006E0FB681A6866
:10263000BB68591CB9601B789362FB68B3F85230D1
:102640009BB2002BC6D13B6800937B6900224021DE
:10265000F86800F07DFC0346002B01D003230AE05C
:10266000FB68202283F86920FB68002283F8682039
:10267000002300E0022318461837BD4680BD80B510
:102680008AB002AFF860B9603B601346FB8000235C
:10269000FB61FB6893F86A30DBB2202B40F0AC8022
:1026A000BB68002B02D0FB88002B01D10123A4E0E2
:1026B000FB6893F86830012B01D102239DE0FB6891
:1026C000012283F86820FB680022DA66FB68222278
:1026D00083F86A20FFF7DAFBF861FB68FA88A3F851
:1026E0005820FB68FA88A3F85A20FB689B68B3F56A
:1026F000805F0ED1FB681B69002B05D1FB6840F29F
:10270000FF12A3F85C2028E0FB68FF22A3F85C20FE
:1027100023E0FB689B68002B0DD1FB681B69002B35
:1027200004D1FB68FF22A3F85C2016E0FB687F223F
:10273000A3F85C2011E0FB689B68B3F1805F0CD1CB
:10274000FB681B69002B04D1FB687F22A3F85C2087
:1027500003E0FB683F22A3F85C20FB68B3F85C3021
:102760007B8339E0FB68B3F85A309BB2013B9AB2E5
:10277000FB68A3F85A203B680093FB6900222021E4
:10278000F86800F0E5FB0346002B01D0032334E09A
:10279000FB689B68B3F5805F12D1FB681B69002B57
:1027A0000ED1BB687B61FB681B685B6A9AB27B8B4E
:1027B00013409AB27B691A80BB680233BB600BE09E
:1027C000BB685A1CBA60FA681268526AD1B27A8B36
:1027D000D2B20A40D2B21A70FB68B3F85A309BB238
:1027E000002BBFD1FB68202283F86A20FB680022FF
:1027F00083F86820002300E0022318462037BD46F6
:1028000080BD80B485B000AFF860B9601346FB802E
:10281000FB6893F86930DBB2202B32D1BB68002B08
:1028200002D0FB88002B01D101232BE0FB6893F839
:102830006830012B01D1022324E0FB68012283F8D8
:102840006820FB68BA68DA64FB68FA88A3F850204D
:10285000FB68FA88A3F85220FB680022DA66FB685E
:10286000212283F86920FB68002283F86820FB6836
:102870001B68FA681268126842F080021A6000232E
:1028800000E0022318461437BD4680BC704780B470
:1028900085B000AFF860B9601346FB80FB6893F821
:1028A0006A30DBB2202B72D1BB68002B02D0FB88D0
:1028B000002B01D101236BE0FB6893F86830012BFA
:1028C00001D1022364E0FB68012283F86820FB68E1
:1028D000BA685A65FB68FA88A3F85820FB68FA883A
:1028E000A3F85A20FB689B68B3F5805F0ED1FB68A4
:1028F0001B69002B05D1FB6840F2FF12A3F85C2096
:1029000028E0FB68FF22A3F85C2023E0FB689B68BB
:10291000002B0DD1FB681B69002B04D1FB68FF2243
:10292000A3F85C2016E0FB687F22A3F85C2011E08E
:10293000FB689B68B3F1805F0CD1FB681B69002BBF
:1029400004D1FB687F22A3F85C2003E0FB683F22F0
:10295000A3F85C20FB680022DA66FB68222283F879
:102960006A20FB68002283F86820FB681B68FA680D
:102970001268926842F001029A60FB681B68FA686C
:102980001268126842F490721A60002300E0022379
:1029900018461437BD4680BC704780B586B000AF7E
:1029A000F860B9601346FB80FB6893F86930DBB2CE
:1029B000202B54D1BB68002B02D0FB88002B01D107
:1029C00001234DE0FB6893F86830012B01D102230D
:1029D00046E0FB68012283F86820BA68FB68DA6485
:1029E000FB68FA88A3F85020FB68FA88A3F8522005
:1029F000FB680022DA66FB68212283F86920FB6805
:102A00001B6E194ADA63FB681B6E184A1A64FB686E
:102A10001B6E174ADA64FB681B6E00221A6507F109
:102A200008037B61FB68186E7B691968FB681B688B
:102A300028331A46FB8807F052FDFB681B684022CA
:102A40001A62FB68002283F86820FB681B68FA683A
:102A50001268926842F080029A60002300E002232C
:102A600018461837BD4680BDE52F000839300008EC
:102A7000DB30000880B586B000AFF860B96013465F
:102A8000FB80FB6893F86A30DBB2202B5CD1BB681B
:102A9000002B02D0FB88002B01D1012355E0FB68FD
:102AA00093F86830012B01D102234EE0FB6801222C
:102AB00083F86820BA68FB685A65FB68FA88A3F84F
:102AC0005820FB680022DA66FB68222283F86A201D
:102AD000FB685B6E1F4ADA63FB685B6E1E4A1A6412
:102AE000FB685B6E1D4ADA64FB685B6E00221A6548
:102AF00007F108037B61FB68586EFB681B68243391
:102B000019467B691A68FB8807F0E9FCFB6800221C
:102B100083F86820FB681B68FA681268126842F440
:102B200080721A60FB681B68FA681268926842F04B
:102B300001029A60FB681B68FA681268926842F0AA
:102B400040029A60002300E0022318461837BD4671
:102B500080BD00BF55300008BF300008DB300008E2
:102B600080B483B000AF78607B6893F86830012B45
:102B700001D1022342E07B68012283F868207B6850
:102B800093F86930DBB2212B0ED17B681B689B6800
:102B900003F08003002B07D07B681B687A681268FB
:102BA000926822F080029A607B6893F86A30DBB208
:102BB000222B1ED17B681B689B6803F04003002B0F
:102BC00017D07B681B687A681268126822F48072DA
:102BD0001A607B681B687A681268926822F00102AA
:102BE0009A607B681B687A681268926822F04002DB
:102BF0009A607B68002283F86820002318460C370F
:102C0000BD4680BC704780B483B000AF78607B68FD
:102C100093F86830012B01D1022343E07B68012245
:102C200083F868207B6893F86930DBB2212B07D1E9
:102C30007B681B687A681268926842F080029A602A
:102C40007B6893F86A30DBB2222B1BD17B681B6850
:102C500008221A627B681B687A681268126842F45C
:102C600080721A607B681B687A681268926842F00A
:102C700001029A607B681B687A681268926842F069
:102C800040029A607B681B681B6803F00103002BFD
:102C900007D17B681B687A681268126842F00102EB
:102CA0001A60002318460C37BD4680BC704780B5BB
:102CB00082B000AF78607B6893F86930DBB2212B7B
:102CC0001AD17B681B689B6803F08003002B13D02C
:102CD0007B681B687A681268926822F080029A60AA
:102CE0007B681B6E002B04D07B681B6E184607F0B8
:102CF00056FC786800F048FB7B6893F86A30DBB2DA
:102D0000222B1AD17B681B689B6803F04003002BC1
:102D100013D07B681B687A681268926822F04002C0
:102D20009A607B685B6E002B04D07B685B6E1846F4
:102D300007F035FC786800F03CFB002318460837A4
:102D4000BD4680BD80B586B000AF78607B681B68EB
:102D5000DB697B617B681B681B683B617B681B6868
:102D60009B68FB607B6903F00F03BB60BB68002BB3
:102D70000DD17B6903F02003002B08D03B6903F0E1
:102D80002003002B03D0786800F093FADAE0BB68E8
:102D9000002B00F0B980FB6803F00103002B05D184
:102DA0003B6903F49073002B00F0AE807B6903F065
:102DB0000103002B0ED03B6903F48073002B09D074
:102DC0007B681B6801221A627B68DB6E43F001029C
:102DD0007B68DA667B6903F00203002B0ED0FB6888
:102DE00003F00103002B09D07B681B6802221A62E2
:102DF0007B68DB6E43F004027B68DA667B6903F074
:102E00000403002B0ED0FB6803F00103002B09D054
:102E10007B681B6804221A627B68DB6E43F0020247
:102E20007B68DA667B6903F00803002B13D03B69EB
:102E300003F02003002B04D1FB6803F00103002BF7
:102E400009D07B681B6808221A627B68DB6E43F03E
:102E500008027B68DA667B68DB6E002B71D07B69C9
:102E600003F02003002B07D03B6903F02003002B65
:102E700002D0786800F01DFA7B68DB6E03F008036F
:102E8000002B06D17B681B689B6803F04003002B76
:102E900031D0786800F08DFA7B681B689B6803F07E
:102EA0004003002B23D07B681B687A681268926805
:102EB00022F040029A607B685B6E002B13D07B6827
:102EC0005B6E224A1A657B685B6E184607F0D7FB7B
:102ED0000346002B16D07B685B6E1B6D7A68526EC2
:102EE000104698470EE0786800F06DF90AE07868BF
:102EF00000F069F906E0786800F065F97B68002267
:102F0000DA661EE000BF1CE07B6903F08003002B43
:102F100008D03B6903F08003002B03D0786800F0F1
:102F20005BF90FE07B6903F04003002B0AD03B699B
:102F300003F04003002B05D0786800F0A2F900BF31
:102F400000E000BF1837BD4680BD00BF5331000808
:102F500080B584B000AFF860B9603B601346FB7188
:102F60002CE0BB69B3F1FF3F28D0BB69002B07D031
:102F7000FEF78CFF02463B68D21ABB699A421DD30A
:102F8000FB681B68FA681268126822F4D0721A6033
:102F9000FB681B68FA681268926822F001029A6066
:102FA000FB68202283F86920FB68202283F86A20CE
:102FB000FB68002283F8682003230FE0FB681B688E
:102FC000DA69BB681A40BB689A420CBF0123002330
:102FD000DBB21A46FB799A42C3D000231846103759
:102FE000BD4680BD80B584B000AF78607B689B6BC8
:102FF000FB607B681B681B6803F48073002B14D193
:10300000FB680022A3F85220FB681B68FA6812686C
:10301000926822F080029A60FB681B68FA68126866
:10302000126842F040021A6002E0F86800F0A7F867
:1030300000BF1037BD4680BD80B584B000AF78605A
:103040007B689B6BFB60F86800F0A2F800BF10374C
:10305000BD4680BD80B584B000AF78607B689B6B57
:10306000FB607B681B681B6803F48073002B1FD117
:10307000FB680022A3F85A20FB681B68FA681268F4
:10308000126822F480721A60FB681B68FA68126882
:10309000926822F001029A60FB681B68FA68126865
:1030A000926822F040029A60FB68202283F86A202E
:1030B000F86800F076F800BF1037BD4680BD80B5D7
:1030C00084B000AF78607B689B6BFB60F86800F0B1
:1030D00071F800BF1037BD4680BD80B584B000AF29
:1030E00078607B689B6BFB60FB680022A3F85A202A
:1030F000FB680022A3F85220FB6893F86930DBB22A
:10310000212B09D1FB681B689B6803F08003002B0F
:1031100002D0F86800F038F9FB6893F86A30DBB247
:10312000222B09D1FB681B689B6803F04003002B2E
:1031300002D0F86800F03DF9FB68DB6E43F0100246
:10314000FB68DA66F86800F03EF800BF1037BD464D
:1031500080BD80B584B000AF78607B689B6BFB60FE
:10316000FB680022A3F85A20FB680022A3F8522033
:10317000F86800F028F800BF1037BD4680BD80B465
:1031800083B000AF786000BF0C37BD4680BC70478D
:1031900080B483B000AF786000BF0C37BD4680BC00
:1031A000704780B483B000AF786000BF0C37BD4675
:1031B00080BC704780B483B000AF786000BF0C372C
:1031C000BD4680BC704780B483B000AF786000BF5C
:1031D0000C37BD4680BC704780B485B000AF7860C6
:1031E0007B6893F86930DBB2212B44D17B68B3F85C
:1031F00052309BB2002B11D17B681B687A68126831
:10320000126822F080021A607B681B687A68126874
:10321000126842F040021A6000232DE07B689B6830
:10322000B3F5805F13D17B681B69002B0FD17B68DE
:10323000DB6CFB607B681B68FA681288C2F30802CB
:103240009A627B68DB6C9A1C7B68DA6408E07B68B6
:103250001A687B68DB6C581C7968C8641B789362B9
:103260007B68B3F852309BB2013B9AB27B68A3F8FB
:103270005220002300E0022318461437BD4680BCCC
:10328000704780B582B000AF78607B681B687A6851
:103290001268126822F040021A607B68202283F8CC
:1032A00069207868FFF76BFF002318460837BD4692
:1032B00080BD80B584B000AF78607B68B3F85C30C7
:1032C000FB817B6893F86A30DBB2222B4FD17B689D
:1032D0009B68B3F5805F15D17B681B69002B11D10A
:1032E0007B685B6DBB607B681B685B6A9AB2FB891D
:1032F00013409AB2BB681A807B685B6D9A1C7B682E
:103300005A650DE07B685B6D591C7A6851657A6877
:103310001268526AD1B2FA89D2B20A40D2B21A7095
:103320007B68B3F85A309BB2013B9BB27A6819466E
:10333000A2F85A10002B18D17B681B687A681268B3
:10334000126822F490721A607B681B687A681268AF
:10335000926822F001029A607B68202283F86A203A
:103360007868FFF71EFF00230AE0002308E07B686F
:103370001B687A681268926942F008029A61022317
:1033800018461037BD4680BD80B483B000AF78606A
:103390007B681B687A681268126822F0C0021A60A3
:1033A0007B68202283F8692000BF0C37BD4680BCB3
:1033B000704780B483B000AF78607B681B687A6820
:1033C0001268126822F490721A607B681B687A682F
:1033D0001268926822F001029A607B68202283F8CA
:1033E0006A2000BF0C37BD4680BC704780B582B0F4
:1033F00000AF78607B6893F86830012B01D102231D
:1034000017E07B68012283F868207B68242283F818
:1034100069207B681B687A681268126842F400525F
:103420001A607B68202283F86920786800F073FBBB
:10343000034618460837BD4680BD80B582B000AF50
:1034400078607B6893F86830012B01D1022317E084
:103450007B68012283F868207B68242283F8692036
:103460007B681B687A681268126822F400521A603E
:103470007B68202283F86920786800F04CFB0346C3
:1034800018460837BD4680BD80B483B000AF786071
:103490007B681B687A681268926942F004029A613C
:1034A00000BF0C37BD4680BC704780B485B000AF0C
:1034B00078600023FB600023BB607B6893F8693071
:1034C000DBB2FB607B6893F86A30DBB2BB60FB6801
:1034D000DAB2BB68DBB21343DBB218461437BD4621
:1034E00080BC704780B483B000AF78607B68DB6ECF
:1034F00018460C37BD4680BC704790B587B000AF0A
:1035000078600023FB601023FB7500237B81002380
:10351000BB820023FB747B689A687B681B691A4333
:103520007B685B691A437B68DB691343FB607B68DC
:103530001A687B681B681968A94B0B40F9680B4334
:1035400013607B681B687A681268526822F44051E5
:103550007A68D2680A435A607B689A697B681B6AFA
:103560001343FB607B681B687A681268926822F4D8
:103570003061FA680A439A607B681B68994A9342F3
:103580001ED1994BD3F8903003F00303032B00F2C4
:103590003D8101A252F823F0A9350008B535000895
:1035A000AF350008BB3500080123FB752EE102236F
:1035B000FB752BE10423FB7528E10823FB7525E14E
:1035C0007B681B68894A934230D1874BD3F890308F
:1035D00003F00C030C2B00F2198101A252F823F026
:1035E000153600080D3800080D3800080D380008A1
:1035F000213600080D3800080D3800080D38000885
:103600001B3600080D3800080D3800080D3800087A
:10361000273600080023FB75F8E00223FB75F5E070
:103620000423FB75F2E00823FB75EFE07B681B6861
:103630006F4A93421CD16C4BD3F8903003F03003A7
:10364000102B0FD0102B02D8002B05D0DEE0202B42
:1036500005D0302B09D0D9E00023FB75D6E002233A
:10366000FB75D3E00423FB75D0E00823FB75CDE0A8
:103670007B681B685F4A93421CD15B4BD3F8903048
:1036800003F0C003402B0FD0402B02D8002B05D0F5
:10369000BCE0802B05D0C02B09D0B7E00023FB7520
:1036A000B4E00223FB75B1E00423FB75AEE0082310
:1036B000FB75ABE07B681B684F4A934220D14A4BB5
:1036C000D3F8903003F44073B3F5807F12D0B3F594
:1036D000807F02D8002B07D098E0B3F5007F06D09A
:1036E000B3F5407F09D091E00023FB758EE0022303
:1036F000FB758BE00423FB7588E00823FB7585E0F0
:103700007B681B683D4A934220D1374BD3F89030F9
:1037100003F44063B3F5806F12D0B3F5806F02D825
:10372000002B07D072E0B3F5006F06D0B3F5406F01
:1037300009D06BE00123FB7568E00223FB7565E0AF
:103740000423FB7562E00823FB755FE07B681B6860
:103750002B4A934220D1244BD3F8903003F44053AA
:10376000B3F5805F12D0B3F5805F02D8002B07D08D
:103770004CE0B3F5005F06D0B3F5405F09D045E0FB
:103780000023FB7542E00223FB753FE00423FB7539
:103790003CE00823FB7539E07B681B68194A9342BB
:1037A00035D1114BD3F8903003F44043B3F5804F3B
:1037B00012D0B3F5804F02D8002B07D026E0B3F526
:1037C000004F06D0B3F5404F1ED01FE00023FB751D
:1037D0001CE00223FB7519E00423FB7516E000BF13
:1037E000F369FFEF00100140003802400044004040
:1037F00000480040004C00400050004000140140D0
:1038000000780040007C00400823FB7500BF7B6807
:10381000DB69B3F5004F6CD1FB7D082B54D801A2B6
:1038200052F823F04938000865380008813800084C
:10383000C938000897380008C9380008C938000896
:10384000C9380008B338000801F0FAF903465A00F5
:103850007B685B685B081A447B685B68B2FBF3F3C8
:10386000BB8234E001F000FA03465A007B685B68D3
:103870005B081A447B685B68B2FBF3F3BB8226E00B
:103880007B685B685A08514B13447A685268B3FBF3
:10389000F2F3BB821BE001F06DF903465A007B682E
:1038A0005B685B081A447B685B68B2FBF3F3BB821E
:1038B0000DE07B685B685B0803F580327B685B68C2
:1038C000B2FBF3F3BB8202E00123FB7400BFBB8AAF
:1038D00023F00F037B81BB8A5B109BB203F00703CD
:1038E0009AB27B8913437B817B681B687A89DA6093
:1038F00067E0FB7D082B61D801A252F823F000BFDE
:10390000253900084539000865390008BD39000827
:1039100081390008BD390008BD390008BD390008EB
:10392000A13900087B681C6801F08AF902467B68AF
:103930005B685B081A447B685B68B2FBF3F39BB27D
:10394000E3603EE07B681C6801F08EF902467B680C
:103950005B685B081A447B685B68B2FBF3F39BB25D
:10396000E3602EE07B681A687B685B685908184B37
:103970000B4479684968B3FBF1F39BB2D36020E054
:103980007B681C6801F0F6F802467B685B685B08A0
:103990001A447B685B68B2FBF3F39BB2E36010E010
:1039A0007B681B687A685268520802F500417A68A1
:1039B0005268B1FBF2F292B2DA6002E00123FB74CA
:1039C00000BFFB7C18461C37BD4690BD0048E8018F
:1039D0000024F40080B483B000AF78607B685B6A39
:1039E00003F00103002B0AD07B681B687A68126819
:1039F000526822F400317A68926A0A435A607B68FE
:103A00005B6A03F00203002B0AD07B681B687A68AC
:103A10001268526822F480317A68D26A0A435A6086
:103A20007B685B6A03F00403002B0AD07B681B6889
:103A30007A681268526822F480217A68126B0A430D
:103A40005A607B685B6A03F00803002B0AD07B682E
:103A50001B687A681268526822F400417A68526BD7
:103A60000A435A607B685B6A03F01003002B0AD09C
:103A70007B681B687A681268926822F480517A68C1
:103A8000926B0A439A607B685B6A03F02003002B09
:103A90000AD07B681B687A681268926822F4005129
:103AA0007A68D26B0A439A607B685B6A03F04003D2
:103AB000002B1AD07B681B687A681268526822F45F
:103AC00080117A68126C0A435A607B681B6CB3F5EC
:103AD000801F0AD17B681B687A681268526822F4DA
:103AE000C0017A68526C0A435A607B685B6A03F0D3
:103AF0008003002B0AD07B681B687A6812685268C2
:103B000022F400217A68926C0A435A6000BF0C3795
:103B1000BD4680BC704780B586B002AF7860002398
:103B2000FB607B680022DA66FEF7B0F9F8607B681C
:103B30001B681B6803F00803082B0ED16FF07E434F
:103B40000093FB6800224FF400117868FFF700FA39
:103B50000346002B01D003230CE07B68202283F86E
:103B600069207B68202283F86A207B68002283F822
:103B70006820002318461037BD4680BD80B483B04E
:103B800000AF78607B6893F86830012B01D1022385
:103B900020E07B68012283F868207B68242283F878
:103BA00069207B681B687A681268126822F00C0230
:103BB0001A607B681B687A681268126842F0080213
:103BC0001A607B68202283F869207B68002283F8D2
:103BD0006820002318460C37BD4680BC704780B46F
:103BE00083B000AF78607B6893F86830012B01D117
:103BF000022320E07B68012283F868207B6824226E
:103C000083F869207B681B687A681268126822F062
:103C10000C021A607B681B687A681268126842F0AE
:103C200004021A607B68202283F869207B680022E6
:103C300083F86820002318460C37BD4680BC7047C7
:103C400080B483B000AF78607B6893F86830012B54
:103C500001D1022318E07B68012283F868207B6889
:103C6000242283F869207B681B687A68126892694D
:103C700042F002029A617B68202283F869207B6807
:103C8000002283F86820002318460C37BD4680BC0C
:103C9000704780B582B000AF786039607B68002BD8
:103CA00001D1012321E07B68242283F869207B680D
:103CB0001B687A681268126822F001021A607B6839
:103CC0001B687A681268526822F010013A680A4349
:103CD0005A607B681B687A681268126842F00102B9
:103CE0001A607868FFF717FF034618460837BD4685
:103CF00080BD00BF80B489B000AF78603960002318
:103D0000FB6100237B6100233B610023BB61002337
:103D1000FB6175E10122FB6902FA03F37B613B68F9
:103D20001A687B6913403B613A697B699A4240F0AB
:103D300064813B685B68022B03D03B685B68122B95
:103D400023D1FB69DA087B68083253F82230BB6163
:103D5000FB6903F007039B000F2202FA03F3DB4326
:103D6000BA691340BB613B681A69FB6903F007033A
:103D70009B0002FA03F3BA691343BB61FB69DA08DB
:103D80007B680832B96943F822107B681B68BB6105
:103D9000FB695B00032202FA03F3DB43BA691340B9
:103DA000BB613B685B6803F00302FB695B0002FADE
:103DB00003F3BA691343BB617B68BA691A603B6855
:103DC0005B68012B0BD03B685B68022B07D03B681C
:103DD0005B68112B03D03B685B68122B30D17B688A
:103DE0009B68BB61FB695B00032202FA03F3DB43C0
:103DF000BA691340BB613B68DA68FB695B0002FA91
:103E000003F3BA691343BB617B68BA699A607B6844
:103E10005B68BB610122FB6902FA03F3DB43BA6909
:103E20001340BB613B685B681B0903F00102FB693F
:103E300002FA03F3BA691343BB617B68BA695A603B
:103E40007B68DB68BB61FB695B00032202FA03F35A
:103E5000DB43BA691340BB613B689A68FB695B004E
:103E600002FA03F3BA691343BB617B68BA69DA608B
:103E70003B685B6803F08053002B00F0BE80654A0E
:103E8000644B5B6C43F480435364624B5B6C03F4A0
:103E90008043FB60FB68604AFB699B08023352F871
:103EA0002330BB61FB6903F003039B000F2202FA7E
:103EB00003F3DB43BA691340BB617B68574A934203
:103EC00037D07B68564A934231D07B68554A93423B
:103ED0002BD07B68544A934225D07B68534A934247
:103EE0001FD07B68524A934219D07B68514A934253
:103EF00013D07B68504A93420DD07B684F4A93425F
:103F000007D07B684E4A934201D1092312E00A236D
:103F100010E008230EE007230CE006230AE0052347
:103F200008E0042306E0032304E0022302E0012367
:103F300000E00023FA6902F0030292009340BA699C
:103F40001343BB613449FB699B080233BA6941F8EA
:103F500023203C4B1B68BB613B69DB43BA691340C0
:103F6000BB613B685B6803F48033002B03D0BA6904
:103F70003B691343BB61334ABB691360314B5B68D8
:103F8000BB613B69DB43BA691340BB613B685B685B
:103F900003F40033002B03D0BA693B691343BB61C0
:103FA000284ABB695360274B9B68BB613B69DB4375
:103FB000BA691340BB613B685B6803F48013002B54
:103FC00003D0BA693B691343BB611E4ABB69936066
:103FD0001C4BDB68BB613B69DB43BA691340BB61C7
:103FE0003B685B6803F40013002B03D0BA693B699C
:103FF0001343BB61134ABB69D360FB690133FB61A7
:10400000FB690F2B7FF686AE00BF2437BD4680BC10
:10401000704700BF003802400038014000000240F5
:104020000004024000080240000C02400010024060
:104030000014024000180240001C02400020024010
:1040400000240240003C014080B487B000AF78609B
:10405000396000233B610023FB600023BB60002329
:104060007B61DAE001227B6902FA03F33B613A6883
:104070003B691340FB60FA683B699A4240F0CA8092
:104080007B681A687B695B00032101FA03F3DB4359
:104090001A407B681A607B69DA087B69D9087B68FB
:1040A000083153F821107B6903F007039B000F20B0
:1040B00000FA03F3DB4319407B68083243F822100F
:1040C0007B689A687B695B00032101FA03F3DB4399
:1040D0001A407B689A607B685A6801217B6901FA03
:1040E00003F3DB431A407B685A607B68DA687B69BC
:1040F0005B00032101FA03F3DB431A407B68DA60BB
:104100004A4A7B699B08023352F82330BB607B69C3
:1041100003F003039B000F2202FA03F3BA68134073
:10412000BB607B68424A934237D07B68414A9342E6
:1041300031D07B68404A93422BD07B683F4A934200
:1041400025D07B683E4A93421FD07B683D4A93420C
:1041500019D07B683C4A934213D07B683B4A934218
:104160000DD07B683A4A934207D07B68394A934224
:1041700001D1092312E00A2310E008230EE00723EF
:104180000CE006230AE0052308E0042306E00323ED
:1041900004E0022302E0012300E000237A6902F038
:1041A0000302920003FA02F2BB689A4232D17B69A1
:1041B00003F003039B000F2202FA03F3BB601B48CA
:1041C0007B699B0819497A699208023251F82210DA
:1041D000BA68D2430A40023340F823201E491E4BDE
:1041E0001A68FB68DB4313400B601B491A4B5A6883
:1041F000FB68DB4313404B601749174B9A68FB6819
:10420000DB4313408B601449134BDA68FB68DB43D4
:104210001340CB607B6901337B617B690F2B7FF699
:1042200021AF00BF1C37BD4680BC7047003801403D
:10423000000002400004024000080240000C02405E
:10424000001002400014024000180240001C02400E
:104250000020024000240240003C014080B485B0B0
:1042600000AF78600B467B807B681A697B881340BF
:10427000002B02D00123FB7301E00023FB73FB7BC7
:1042800018461437BD4680BC704780B483B000AF79
:1042900078600B467B8013467B707B78002B03D0C5
:1042A0007A887B689A6103E07B881A047B689A614C
:1042B00000BF0C37BD4680BC704780B483B000AFF0
:1042C00078600B467B807B685A697B885A407B68A4
:1042D0005A6100BF0C37BD4680BC704780B485B0C2
:1042E00000AF78600B467B804FF48033FB607A88A8
:1042F000FB681343FB60FA687B68DA617A887B6845
:10430000DA61FA687B68DA617B68DB69FB607B688D
:10431000DB6903F48033002B01D0002300E001238C
:1043200018461437BD4680BC704780B582B000AFD8
:104330000346FB80084B5A69FB881340002B06D0CC
:10434000054AFB885361FB88184600F007F800BF58
:104350000837BD4680BD00BF003C014080B483B03B
:1043600000AF0346FB8000BF0C37BD4680BC7047E2
:1043700080B400AF194A194B1B6843F081031360E6
:10438000164B00229A601549144B1A68144B1340BF
:104390000B60124B00225A601049104B5A68114BA7
:1043A00013434B600D4B0022C3F884200B490B4B89
:1043B000D3F884200C4B1343C1F88430074A074BD1
:1043C0001B6823F480231360044B0022DA60074B40
:1043D000074A1A6000BFBD4680BC704700380240E3
:1043E000FFFFF6FA1030002400300020000000200B
:1043F0000024F40080B586B000AF78600023FB7520
:104400007B68002B01D101235CE27B681B6803F011
:104410000103002B00F08780964B9B6803F00C0390
:10442000042B0CD0934B9B6803F00C03082B12D188
:10443000904B5B6803F48003B3F5800F0BD18D4B79
:104440001B6803F40033002B6CD07B685B68002B87
:1044500068D1012336E27B685B68B3F5803F06D103
:10446000844A844B1B6843F4803313602EE07B68DE
:104470005B68002B0CD17F4A7E4B1B6823F4803392
:1044800013607C4A7B4B1B6823F4802313601DE080
:104490007B685B68B3F5A02F0CD1764A754B1B681F
:1044A00043F480231360734A724B1B6843F48033D8
:1044B00013600BE06F4A6F4B1B6823F4803313606B
:1044C0006C4A6C4B1B6823F4802313607B685B6829
:1044D000002B13D0FDF7DAFC386108E0FDF7D6FCBD
:1044E00002463B69D31A642B01D90323EAE1614BED
:1044F0001B6803F40033002BF0D014E0FDF7C6FC7A
:10450000386108E0FDF7C2FC02463B69D31A642B10
:1045100001D90323D6E1574B1B6803F40033002B6A
:10452000F0D100E000BF7B681B6803F00203002BA2
:1045300069D0504B9B6803F00C03002B0BD04D4B04
:104540009B6803F00C03082B1CD14A4B5B6803F4F7
:104550008003002B16D1474B1B6803F00203002B8E
:1045600005D07B68DB68012B01D00123AAE141491A
:10457000404B1B6823F0F8027B681B69DB00134388
:104580000B6040E07B68DB68002B23D0394A394B55
:104590001B6843F001031360FDF778FC386108E005
:1045A000FDF774FC02463B69D31A022B01D90323A1
:1045B00088E1304B1B6803F00203002BF0D02D493B
:1045C0002C4B1B6823F0F8027B681B69DB0013434C
:1045D0000B6018E0274A274B1B6823F00103136088
:1045E000FDF754FC386108E0FDF750FC02463B69DA
:1045F000D31A022B01D9032364E11E4B1B6803F07D
:104600000203002BF0D17B681B6803F00803002B2A
:1046100038D07B685B69002B19D0164A154B5B6F4D
:1046200043F001035367FDF731FC386108E0FDF703
:104630002DFC02463B69D31A022B01D9032341E129
:104640000C4B5B6F03F00203002BF0D01AE0094A19
:10465000084B5B6F23F001035367FDF717FC3861CC
:104660000AE0FDF713FC02463B69D31A022B03D97B
:10467000032327E100380240944B5B6F03F00203F1
:10468000002BEED17B681B6803F00403002B00F0C5
:10469000A4808E4B1B6C03F08053002B0DD18B4AF2
:1046A0008A4B1B6C43F080531364884B1B6C03F0E4
:1046B0008053FB60FB680123FB75854B1B6803F48B
:1046C0008073002B18D1824A814B1B6843F480739E
:1046D0001360FDF7DBFB386108E0FDF7D7FB02460E
:1046E0003B69D31A642B01D90323EBE0784B1B6899
:1046F00003F48073002BF0D07B689B68012B06D1FC
:10470000724A724B1B6F43F0010313672DE07B6805
:104710009B68002B0CD16D4A6C4B1B6F23F001037F
:1047200013676A4A694B1B6F23F0040313671CE08D
:104730007B689B68052B0CD1644A644B1B6F43F06C
:1047400004031367614A614B1B6F43F00103136756
:104750000BE05E4A5D4B1B6F23F0010313675B4A5E
:104760005A4B1B6F23F0040313677B689B68002B75
:1047700015D0FDF78BFB38610AE0FDF787FB024699
:104780003B69D31A41F28832934201D9032399E05D
:104790004E4B1B6F03F00203002BEED014E0FDF72D
:1047A00075FB38610AE0FDF771FB02463B69D31ADD
:1047B00041F28832934201D9032383E0434B1B6FBC
:1047C00003F00203002BEED1FB7D012B05D13F4A04
:1047D0003E4B1B6C23F0805313647B689B69002B5A
:1047E0006FD03A4B9B6803F00C03082B67D07B68B3
:1047F0009B69022B49D1354A344B1B6823F08073E7
:104800001360FDF743FB386108E0FDF73FFB02460C
:104810003B69D31A022B01D9032353E02B4B1B68AE
:1048200003F00073002BF0D128497B68DA697B68BC
:104830001B6A1A437B685B6A9B011A437B689B6A0D
:104840005B08013B1B041A437B68DB6A1B061343AE
:1048500043F000534B601D4A1C4B1B6843F08073B0
:104860001360FDF713FB386108E0FDF70FFB02460C
:104870003B69D31A022B01D9032323E0134B1B6896
:1048800003F00073002BF0D01BE0104A0F4B1B68A5
:1048900023F080731360FDF7F9FA386108E0FDF743
:1048A000F5FA02463B69D31A022B01D9032309E02A
:1048B000064B1B6803F00073002BF0D101E00123CD
:1048C00000E0002318461837BD4680BD003802407E
:1048D0000070004080B584B000AF7860396000237C
:1048E000FB607B68002B01D10123B6E05D4B1B68A8
:1048F00003F00F023B689A4210D25A49594B1B6889
:1049000023F00F023B6813430B60564B1B6803F008
:104910000F023B689A4201D001239EE07B681B682E
:1049200003F00203002B08D04F494F4B9B6823F044
:10493000F0027B689B6813438B607B681B6803F005
:104940000103002B40D07B685B68012B07D1464BED
:104950001B6803F40033002B15D101237DE07B6835
:104960005B68022B07D1404B1B6803F00073002BE0
:1049700009D1012371E03C4B1B6803F00203002BBB
:1049800001D1012369E03849374B9B6823F00302CA
:104990007B685B6813438B60FDF778FAF8600AE088
:1049A000FDF774FA0246FB68D31A41F2883293424B
:1049B00001D9032351E02C4B9B6803F00C027B6868
:1049C0005B689B009A42EBD1264B1B6803F00F02F9
:1049D0003B689A4210D92349224B1B6823F00F02EF
:1049E0003B6813430B601F4B1B6803F00F023B68CF
:1049F0009A4201D0012330E07B681B6803F0040376
:104A0000002B08D01849184B9B6823F4E0527B68B0
:104A1000DB6813438B607B681B6803F00803002B83
:104A200009D01149104B9B6823F460427B681B69D5
:104A3000DB0013438B6000F09DF801460A4B9B6836
:104A40001B0903F00F03094AD35C21FA03F3084A58
:104A500013600020FDF7F0F9002318461037BD461B
:104A600080BD00BF003C0240003802403CD100083D
:104A70000000002080B58CB000AFF860B9607A60AB
:104A8000FB68002B27D12A4A294B1B6B43F00103FB
:104A90001363274B1B6B03F00103BB61BB694FF42E
:104AA0008073FB6102233B620323BB6200237B62B2
:104AB0000023FB6207F11C0319461E48FFF71AF991
:104AC0001B481B4B9B6823F0EC62B9687B680B4367
:104AD0001343836027E0164A154B1B6B43F0040316
:104AE0001363134B1B6B03F004037B617B694FF46F
:104AF0000073FB6102233B620323BB6200237B62E2
:104B00000023FB6207F11C0319460B48FFF7F2F87C
:104B10000748074B9B6823F078427B68D900BB6845
:104B20000B431343836000BF3037BD4680BD00BFD9
:104B300000380240000002400008024080B400AF8C
:104B4000044A044B1B6843F40023136000BFBD46B6
:104B500080BC70470038024080B400AF044A044B68
:104B60001B6823F40023136000BFBD4680BC704760
:104B70000038024080B485B000AF00237B60002382
:104B8000FB6000233B600023BB60254B9B6803F068
:104B90000C03042B06D0082B07D0002B37D1214B58
:104BA000BB6037E0204BBB6034E01D4B5B6803F01B
:104BB0003F037B601A4B5B6803F48003002B0CD02F
:104BC000194A7B68B2FBF3F3154A52689209C2F3A3
:104BD000080202FB03F3FB600BE0124A7B68B2FBA6
:104BE000F3F30F4A52689209C2F3080202FB03F37F
:104BF000FB600B4B5B681B0C03F0030301335B0092
:104C00003B60FA683B68B2FBF3F3BB6002E0054B24
:104C1000BB6000BFBB6818461437BD4680BC7047F8
:104C2000003802400024F40040787D0180B400AFD9
:104C3000024B1B681846BD4680BC70470000002030
:104C400080B500AFFFF7F2FF0146054B9B689B0A5A
:104C500003F00703034AD35C21FA03F3184680BD2F
:104C6000003802404CD1000880B500AFFFF7DEFFEE
:104C70000146054B9B685B0B03F00703034AD35CBB
:104C800021FA03F3184680BD003802404CD10008D9
:104C900080B483B000AF78607B680F221A60454B08
:104CA0001B6803F48023B3F5802F04D17B684FF495
:104CB000A0225A600EE03F4B1B6803F48033B3F52B
:104CC000803F04D17B684FF480325A6002E07B68F9
:104CD00000225A60374B1B6803F00103012B03D1FC
:104CE0007B680122DA6002E07B680022DA60314BE7
:104CF0001B68DB0803F01F027B681A612D4B1B6FDA
:104D000003F00403042B03D17B6805229A600CE0B6
:104D1000284B1B6F03F00103012B03D17B68012299
:104D20009A6002E07B6800229A60224B5B6F03F07E
:104D30000103012B03D17B6801225A6102E07B68E9
:104D400000225A611B4B1B6803F08073B3F1807F14
:104D500003D17B6802229A6102E07B6801229A619A
:104D6000144B5B6803F480027B68DA61114B5B686B
:104D700003F03F027B681A620E4B5B689B09C3F32A
:104D800008027B685A620B4B5B6803F4403303F5FF
:104D900080335B001A0C7B689A62064B5B681B0EC3
:104DA00003F00F027B68DA6200BF0C37BD4680BC9F
:104DB000704700BF0038024080B483B000AF786015
:104DC00039607B680F221A60114B9B6803F0030265
:104DD0007B685A600E4B9B6803F0F0027B689A6018
:104DE0000B4B9B6803F4E0527B68DA60084B9B68CE
:104DF000DB0803F4E0527B681A61064B1B6803F082
:104E00000F023B681A6000BF0C37BD4680BC70477C
:104E100000380240003C024080B500AF064BDB6822
:104E200003F08003802B04D100F00AF8034B8022AA
:104E30001A7000BF80BD00BF003802400E3802402B
:104E400080B400AF00BFBD4680BC704780B582B063
:104E500000AF78607B68002B01D101231DE07B68E7
:104E600093F83D30DBB2002B06D17B68002283F83B
:104E70003C20786807F0B1FA7B68022283F83D2075
:104E80007B681A687B6804331946104603F08BFA76
:104E90007B68012283F83D20002318460837BD4671
:104EA00080BD80B582B000AF78607B68022283F855
:104EB0003D207B681B681A6A41F211131340002BD6
:104EC0000FD17B681B681A6A40F244431340002BE1
:104ED00007D17B681B687A681268126822F00102A9
:104EE0001A60786807F084FB7B68002283F83D2015
:104EF0007B68002283F83C20002318460837BD4613
:104F000080BD80B483B000AF786000BF0C37BD4671
:104F100080BC704780B483B000AF786000BF0C37AE
:104F2000BD4680BC704780B483B000AF78607B68BA
:104F3000022283F83D207B681B687A681268126839
:104F400042F001021A607B68012283F83D200023B1
:104F500018460C37BD4680BC704780B483B000AFA4
:104F600078607B68022283F83D207B681B681A6AA0
:104F700041F211131340002B0FD17B681B681A6A92
:104F800040F244431340002B07D17B681B687A68CA
:104F90001268126822F001021A607B68012283F80D
:104FA0003D20002318460C37BD4680BC704780B4B6
:104FB00083B000AF78607B681B687A681268D2683B
:104FC00042F00102DA607B681B687A681268126836
:104FD00042F001021A60002318460C37BD4680BC1F
:104FE000704780B483B000AF78607B681B687A68D4
:104FF0001268D26822F00102DA607B681B681A6AC4
:1050000041F211131340002B0FD17B681B681A6A01
:1050100040F244431340002B07D17B681B687A6839
:105020001268126822F001021A60002318460C3739
:10503000BD4680BC704780B584B000AFF860B960F1
:105040001346FB80FB6893F83D30DBB2022B01D1A5
:10505000022334E0FB6893F83D30DBB2012B0BD127
:10506000BB68002B04D1FB88002B01D0012326E074
:10507000FB68022283F83D20FB681B6A124ADA6350
:10508000FB681B6A114ADA64FB68186AB968FB6836
:105090001B682C331A46FB8805F021FAFB681B6855
:1050A000FA681268D26842F48072DA60FB681B68A2
:1050B000FA681268126842F001021A60002318466A
:1050C0001037BD4680BD00BF5F8300085B820008CB
:1050D00080B483B000AF78607B681B687A68126820
:1050E000D26822F48072DA607B681B681A6A41F227
:1050F00011131340002B0FD17B681B681A6A40F212
:1051000044431340002B07D17B681B687A68126800
:10511000126822F001021A607B68012283F83D20A8
:10512000002318460C37BD4680BC704780B582B05E
:1051300000AF78607B68002B01D101231DE07B6804
:1051400093F83D30DBB2002B06D17B68002283F858
:105150003C20786800F045F87B68022283F83D2007
:105160007B681A687B6804331946104603F01BF904
:105170007B68012283F83D20002318460837BD468E
:1051800080BD80B582B000AF78607B68022283F872
:105190003D207B681B681A6A41F211131340002BF3
:1051A0000FD17B681B681A6A40F244431340002BFE
:1051B00007D17B681B687A681268126822F00102C6
:1051C0001A60786800F016F87B68002283F83D20AA
:1051D0007B68002283F83C20002318460837BD4630
:1051E00080BD80B483B000AF786000BF0C37BD468F
:1051F00080BC704780B483B000AF786000BF0C37CC
:10520000BD4680BC704780B582B000AF7860396021
:105210007B681B6801223968184603F0A3FD7B6890
:105220001B68114A934204D07B681B680F4A934263
:1052300001D1012300E00023002B07D07B681B680D
:105240007A681268526C42F400425A647B681B68A8
:105250007A681268126842F001021A600023184648
:105260000837BD4680BD00BF00000140000401407A
:1052700080B582B000AF786039607B681B6800221F
:105280003968184603F06EFD7B681B68204A93421C
:1052900004D07B681B681F4A934201D1012300E0C0
:1052A0000023002B17D07B681B681A6A41F2111388
:1052B0001340002B0FD17B681B681A6A40F24443ED
:1052C0001340002B07D17B681B687A681268526C08
:1052D00022F400425A647B681B681A6A41F2111377
:1052E0001340002B0FD17B681B681A6A40F24443BD
:1052F0001340002B07D17B681B687A68126812681C
:1053000022F001021A60002318460837BD4680BD0E
:10531000000001400004014080B582B000AF786019
:1053200039603B680C2B41D801A252F823F000BF32
:1053300065530008AD530008AD530008AD53000895
:1053400077530008AD530008AD530008AD53000873
:1053500089530008AD530008AD530008AD53000851
:105360009B5300087B681B687A681268D26842F019
:105370000202DA601BE07B681B687A681268D268F8
:1053800042F00402DA6012E07B681B687A681268F7
:10539000D26842F00802DA6009E07B681B687A682C
:1053A0001268D26842F01002DA6000E000BF7B6849
:1053B0001B6801223968184603F0D4FC7B681B681F
:1053C000104A934204D07B681B680F4A934201D174
:1053D000012300E00023002B07D07B681B687A685C
:1053E0001268526C42F400425A647B681B687A6807
:1053F0001268126842F001021A600023184608374A
:10540000BD4680BD000001400004014080B582B06F
:1054100000AF786039603B680C2B41D801A252F88C
:1054200023F000BF59540008A1540008A1540008FB
:10543000A15400086B540008A1540008A1540008AE
:10544000A15400087D540008A1540008A15400088C
:10545000A15400088F5400087B681B687A681268A2
:10546000D26822F00202DA601BE07B681B687A686F
:105470001268D26822F00402DA6012E07B681B68CE
:105480007A681268D26822F00802DA6009E07B6864
:105490001B687A681268D26822F01002DA6000E0B5
:1054A00000BF7B681B6800223968184603F05AFC6D
:1054B0007B681B68204A934204D07B681B681F4AA4
:1054C000934201D1012300E00023002B17D07B6819
:1054D0001B681A6A41F211131340002B0FD17B682D
:1054E0001B681A6A40F244431340002B07D17B68C3
:1054F0001B687A681268526C22F400425A647B6816
:105500001B681A6A41F211131340002B0FD17B68FC
:105510001B681A6A40F244431340002B07D17B6892
:105520001B687A681268126822F001021A60002370
:1055300018460837BD4680BD000001400004014008
:1055400080B584B000AFF860B9607A607B80FB689A
:1055500093F83D30DBB2022B01D10223C6E0FB6899
:1055600093F83D30DBB2012B0BD17B68002B04D1CB
:105570007B88002B01D00123B8E0FB68022283F86E
:105580003D20BB680C2B00F2898001A252F823F069
:10559000C55500089D5600089D5600089D560008F8
:1055A000FB5500089D5600089D5600089D560008B2
:1055B000315600089D5600089D5600089D5600086B
:1055C00067560008FB685B6A4A4ADA63FB685B6AF5
:1055D000494ADA64FB68586A7968FB681B683433A7
:1055E0001A467B8804F07BFFFB681B68FA68126828
:1055F000D26842F40072DA6051E0FB689B6A3D4A6F
:10560000DA63FB689B6A3C4ADA64FB68986A7968EB
:10561000FB681B6838331A467B8804F060FFFB6820
:105620001B68FA681268D26842F48062DA6036E079
:10563000FB68DB6A2F4ADA63FB68DB6A2E4ADA64AE
:10564000FB68D86A7968FB681B683C331A467B881C
:1056500004F045FFFB681B68FA681268D26842F4E0
:105660000062DA601BE0FB681B6B224ADA63FB68AE
:105670001B6B214ADA64FB68186B7968FB681B684E
:1056800040331A467B8804F02AFFFB681B68FA68DF
:105690001268D26842F48052DA6000E000BFFB6812
:1056A0001B680122B968184603F05CFBFB681B68A5
:1056B000124A934204D0FB681B68114A934201D1FD
:1056C000012300E00023002B07D0FB681B68FA6869
:1056D0001268526C42F400425A64FB681B68FA6814
:1056E0001268126842F001021A600023184610374F
:1056F000BD4680BD7F8200085B820008000001403B
:105700000004014080B582B000AF786039603B682A
:105710000C2B41D801A252F823F000BF51570008CA
:1057200099570008995700089957000863570008CF
:1057300099570008995700089957000875570008AD
:10574000995700089957000899570008875700088B
:105750007B681B687A681268D26822F40072DA608B
:105760001BE07B681B687A681268D26822F480624A
:10577000DA6012E07B681B687A681268D26822F4EB
:105780000062DA6009E07B681B687A681268D26898
:1057900022F48052DA6000E000BF7B681B680022C0
:1057A0003968184603F0DEFA7B681B68224A934288
:1057B00004D07B681B68214A934201D1012300E099
:1057C0000023002B17D07B681B681A6A41F2111363
:1057D0001340002B0FD17B681B681A6A40F24443C8
:1057E0001340002B07D17B681B687A681268526CE3
:1057F00022F400425A647B681B681A6A41F2111352
:105800001340002B0FD17B681B681A6A40F2444397
:105810001340002B07D17B681B687A6812681268F6
:1058200022F001021A607B68012283F83D200023E8
:1058300018460837BD4680BD000001400004014005
:1058400080B582B000AF78607B68002B01D1012366
:105850001DE07B6893F83D30DBB2002B06D17B68FE
:10586000002283F83C20786806F0EEFD7B68022277
:1058700083F83D207B681A687B680433194610461C
:1058800002F091FD7B68012283F83D200023184639
:105890000837BD4680BD80B582B000AF78607B68B8
:1058A000022283F83D207B681B681A6A41F21113BB
:1058B0001340002B0FD17B681B681A6A40F24443E7
:1058C0001340002B07D17B681B687A681268126846
:1058D00022F001021A60786806F0B0FE7B680022B0
:1058E00083F83D207B68002283F83C200023184683
:1058F0000837BD4680BD80B483B000AF786000BF7C
:105900000C37BD4680BC704780B483B000AF786070
:1059100000BF0C37BD4680BC704780B582B000AF79
:10592000786039607B681B6801223968184603F08B
:1059300019FA7B681B68114A934204D07B681B6884
:105940000F4A934201D1012300E00023002B07D02E
:105950007B681B687A681268526C42F400425A6491
:105960007B681B687A681268126842F001021A604C
:10597000002318460837BD4680BD00BF0000014027
:105980000004014080B582B000AF786039607B6868
:105990001B6800223968184603F0E4F97B681B682D
:1059A000224A934204D07B681B68214A934201D16A
:1059B000012300E00023002B17D07B681B681A6AC4
:1059C00041F211131340002B0FD17B681B681A6A38
:1059D00040F244431340002B07D17B681B687A6870
:1059E0001268526C22F400425A647B681B681A6A7F
:1059F00041F211131340002B0FD17B681B681A6A08
:105A000040F244431340002B07D17B681B687A683F
:105A10001268126822F001021A607B68012283F882
:105A20003D20002318460837BD4680BD00000140D8
:105A30000004014080B582B000AF786039603B68F7
:105A40000C2B41D801A252F823F000BF815A000864
:105A5000C95A0008C95A0008C95A0008935A0008D0
:105A6000C95A0008C95A0008C95A0008A55A0008AE
:105A7000C95A0008C95A0008C95A0008B75A00088C
:105A80007B681B687A681268D26842F00202DA60AA
:105A90001BE07B681B687A681268D26842F00402D7
:105AA000DA6012E07B681B687A681268D26842F09C
:105AB0000802DA6009E07B681B687A681268D268BD
:105AC00042F01002DA6000E000BF7B681B68012230
:105AD0003968184603F046F97B681B68104A934200
